{
  "contractName": "BountyHub",
  "abi": [
    {
      "constant": false,
      "inputs": [],
      "name": "kill",
      "outputs": [],
      "payable": false,
      "stateMutability": "nonpayable",
      "type": "function"
    },
    {
      "constant": false,
      "inputs": [],
      "name": "renounceOwnership",
      "outputs": [],
      "payable": false,
      "stateMutability": "nonpayable",
      "type": "function"
    },
    {
      "constant": true,
      "inputs": [],
      "name": "stopped",
      "outputs": [
        {
          "name": "",
          "type": "bool"
        }
      ],
      "payable": false,
      "stateMutability": "view",
      "type": "function"
    },
    {
      "constant": true,
      "inputs": [],
      "name": "owner",
      "outputs": [
        {
          "name": "",
          "type": "address"
        }
      ],
      "payable": false,
      "stateMutability": "view",
      "type": "function"
    },
    {
      "constant": true,
      "inputs": [
        {
          "name": "",
          "type": "address"
        },
        {
          "name": "",
          "type": "uint256"
        }
      ],
      "name": "bountyAddressByOwner",
      "outputs": [
        {
          "name": "",
          "type": "address"
        }
      ],
      "payable": false,
      "stateMutability": "view",
      "type": "function"
    },
    {
      "constant": true,
      "inputs": [
        {
          "name": "",
          "type": "uint256"
        }
      ],
      "name": "bountyAddress",
      "outputs": [
        {
          "name": "",
          "type": "address"
        }
      ],
      "payable": false,
      "stateMutability": "view",
      "type": "function"
    },
    {
      "constant": false,
      "inputs": [
        {
          "name": "_newOwner",
          "type": "address"
        }
      ],
      "name": "transferOwnership",
      "outputs": [],
      "payable": false,
      "stateMutability": "nonpayable",
      "type": "function"
    },
    {
      "anonymous": false,
      "inputs": [
        {
          "indexed": true,
          "name": "previousOwner",
          "type": "address"
        }
      ],
      "name": "OwnershipRenounced",
      "type": "event"
    },
    {
      "anonymous": false,
      "inputs": [
        {
          "indexed": true,
          "name": "previousOwner",
          "type": "address"
        },
        {
          "indexed": true,
          "name": "newOwner",
          "type": "address"
        }
      ],
      "name": "OwnershipTransferred",
      "type": "event"
    },
    {
      "constant": false,
      "inputs": [],
      "name": "stopBountyHub",
      "outputs": [
        {
          "name": "success",
          "type": "bool"
        }
      ],
      "payable": false,
      "stateMutability": "nonpayable",
      "type": "function"
    },
    {
      "constant": false,
      "inputs": [],
      "name": "restartBountyHub",
      "outputs": [
        {
          "name": "success",
          "type": "bool"
        }
      ],
      "payable": false,
      "stateMutability": "nonpayable",
      "type": "function"
    },
    {
      "constant": false,
      "inputs": [
        {
          "name": "_title",
          "type": "string"
        },
        {
          "name": "_description",
          "type": "string"
        },
        {
          "name": "_amount",
          "type": "uint256"
        }
      ],
      "name": "createBounty",
      "outputs": [
        {
          "name": "",
          "type": "address"
        }
      ],
      "payable": false,
      "stateMutability": "nonpayable",
      "type": "function"
    },
    {
      "constant": true,
      "inputs": [],
      "name": "getAllBountyAddress",
      "outputs": [
        {
          "name": "",
          "type": "address[]"
        }
      ],
      "payable": false,
      "stateMutability": "view",
      "type": "function"
    },
    {
      "constant": true,
      "inputs": [
        {
          "name": "_bountyOwner",
          "type": "address"
        }
      ],
      "name": "getBountyAddressByOwner",
      "outputs": [
        {
          "name": "",
          "type": "address[]"
        }
      ],
      "payable": false,
      "stateMutability": "view",
      "type": "function"
    },
    {
      "constant": true,
      "inputs": [
        {
          "name": "_bountyAddress",
          "type": "address"
        }
      ],
      "name": "getBountyInfo",
      "outputs": [
        {
          "name": "_owner",
          "type": "address"
        },
        {
          "name": "_title",
          "type": "string"
        },
        {
          "name": "_description",
          "type": "string"
        },
        {
          "name": "_reward",
          "type": "uint256"
        },
        {
          "name": "_status",
          "type": "uint256"
        },
        {
          "name": "bounty",
          "type": "address"
        }
      ],
      "payable": false,
      "stateMutability": "view",
      "type": "function"
    },
    {
      "constant": false,
      "inputs": [
        {
          "name": "_bountyAddress",
          "type": "address"
        },
        {
          "name": "_comment",
          "type": "string"
        }
      ],
      "name": "submitWork",
      "outputs": [
        {
          "name": "success",
          "type": "bool"
        }
      ],
      "payable": false,
      "stateMutability": "nonpayable",
      "type": "function"
    },
    {
      "constant": true,
      "inputs": [
        {
          "name": "_bountyAddress",
          "type": "address"
        }
      ],
      "name": "getHunterAddress",
      "outputs": [
        {
          "name": "_hunters",
          "type": "address[]"
        }
      ],
      "payable": false,
      "stateMutability": "view",
      "type": "function"
    },
    {
      "constant": true,
      "inputs": [
        {
          "name": "_bountyAddress",
          "type": "address"
        },
        {
          "name": "_hunter",
          "type": "address"
        }
      ],
      "name": "getWork",
      "outputs": [
        {
          "name": "_comment",
          "type": "string"
        },
        {
          "name": "_isAccept",
          "type": "bool"
        }
      ],
      "payable": false,
      "stateMutability": "view",
      "type": "function"
    },
    {
      "constant": true,
      "inputs": [
        {
          "name": "_bountyAddress",
          "type": "address"
        }
      ],
      "name": "getParticipationStatus",
      "outputs": [
        {
          "name": "_isSubmit",
          "type": "bool"
        }
      ],
      "payable": false,
      "stateMutability": "view",
      "type": "function"
    },
    {
      "constant": false,
      "inputs": [
        {
          "name": "_bountyAddress",
          "type": "address"
        }
      ],
      "name": "finishBounty",
      "outputs": [
        {
          "name": "success",
          "type": "bool"
        }
      ],
      "payable": false,
      "stateMutability": "nonpayable",
      "type": "function"
    },
    {
      "constant": false,
      "inputs": [
        {
          "name": "_bountyAddress",
          "type": "address"
        },
        {
          "name": "_hunterAddress",
          "type": "address"
        }
      ],
      "name": "reviewWork",
      "outputs": [
        {
          "name": "success",
          "type": "bool"
        }
      ],
      "payable": false,
      "stateMutability": "nonpayable",
      "type": "function"
    },
    {
      "constant": true,
      "inputs": [
        {
          "name": "_bountyAddress",
          "type": "address"
        }
      ],
      "name": "getAcceptedHunter",
      "outputs": [
        {
          "name": "_hunter",
          "type": "address[]"
        }
      ],
      "payable": false,
      "stateMutability": "view",
      "type": "function"
    },
    {
      "constant": false,
      "inputs": [
        {
          "name": "_bountyAddress",
          "type": "address"
        },
        {
          "name": "_acceptedHunter",
          "type": "address"
        }
      ],
      "name": "payBounty",
      "outputs": [
        {
          "name": "success",
          "type": "bool"
        }
      ],
      "payable": true,
      "stateMutability": "payable",
      "type": "function"
    }
  ],
  "bytecode": "0x608060405260008060146101000a81548160ff021916908315150217905550336000806101000a81548173ffffffffffffffffffffffffffffffffffffffff021916908373ffffffffffffffffffffffffffffffffffffffff1602179055506136698061006d6000396000f30060806040526004361062000133576000357c0100000000000000000000000000000000000000000000000000000000900463ffffffff16806303ff66161462000138578063281e9dfd14620001d55780632bfa7d60146200025357806341c0e1b5146200034f57806346457d6214620003695780634736b7831462000456578063715018a614620004c657806375f12b2114620004e0578063766e6e2d146200051257806382305e7c14620005af5780638da5cb5b146200064c5780639613ffa714620006a6578063ac95e9e61462000736578063b8c42f1214620008db578063bcc90749146200090d578063bce2fbb7146200096b578063cf75bf9d1462000a0f578063d07667c91462000a6d578063dc50610e1462000add578063df0647d61462000b0f578063f2fde38b1462000b80575b600080fd5b3480156200014557600080fd5b506200017c600480360381019080803573ffffffffffffffffffffffffffffffffffffffff16906020019092919050505062000bc6565b6040518080602001828103825283818151815260200191508051906020019060200280838360005b83811015620001c1578082015181840152602081019050620001a4565b505050509050019250505060405180910390f35b348015620001e257600080fd5b5062000239600480360381019080803573ffffffffffffffffffffffffffffffffffffffff169060200190929190803573ffffffffffffffffffffffffffffffffffffffff16906020019092919050505062000cec565b604051808215151515815260200191505060405180910390f35b3480156200026057600080fd5b506200030d600480360381019080803590602001908201803590602001908080601f0160208091040260200160405190810160405280939291908181526020018383808284378201915050505050509192919290803590602001908201803590602001908080601f01602080910402602001604051908101604052809392919081815260200183838082843782019150505050505091929192908035906020019092919050505062000e25565b604051808273ffffffffffffffffffffffffffffffffffffffff1673ffffffffffffffffffffffffffffffffffffffff16815260200191505060405180910390f35b3480156200035c57600080fd5b5062000367620010a2565b005b3480156200037657600080fd5b50620003cd600480360381019080803573ffffffffffffffffffffffffffffffffffffffff169060200190929190803573ffffffffffffffffffffffffffffffffffffffff16906020019092919050505062001138565b604051808060200183151515158152602001828103825284818151815260200191508051906020019080838360005b8381101562000419578082015181840152602081019050620003fc565b50505050905090810190601f168015620004475780820380516001836020036101000a031916815260200191505b50935050505060405180910390f35b620004ac600480360381019080803573ffffffffffffffffffffffffffffffffffffffff169060200190929190803573ffffffffffffffffffffffffffffffffffffffff169060200190929190505050620012ac565b604051808215151515815260200191505060405180910390f35b348015620004d357600080fd5b50620004de620014c1565b005b348015620004ed57600080fd5b50620004f8620015c4565b604051808215151515815260200191505060405180910390f35b3480156200051f57600080fd5b5062000556600480360381019080803573ffffffffffffffffffffffffffffffffffffffff169060200190929190505050620015d7565b6040518080602001828103825283818151815260200191508051906020019060200280838360005b838110156200059b5780820151818401526020810190506200057e565b505050509050019250505060405180910390f35b348015620005bc57600080fd5b50620005f3600480360381019080803573ffffffffffffffffffffffffffffffffffffffff169060200190929190505050620016e1565b6040518080602001828103825283818151815260200191508051906020019060200280838360005b83811015620006385780820151818401526020810190506200061b565b505050509050019250505060405180910390f35b3480156200065957600080fd5b5062000664620017cd565b604051808273ffffffffffffffffffffffffffffffffffffffff1673ffffffffffffffffffffffffffffffffffffffff16815260200191505060405180910390f35b348015620006b357600080fd5b50620006f4600480360381019080803573ffffffffffffffffffffffffffffffffffffffff16906020019092919080359060200190929190505050620017f2565b604051808273ffffffffffffffffffffffffffffffffffffffff1673ffffffffffffffffffffffffffffffffffffffff16815260200191505060405180910390f35b3480156200074357600080fd5b506200077a600480360381019080803573ffffffffffffffffffffffffffffffffffffffff16906020019092919050505062001840565b604051808773ffffffffffffffffffffffffffffffffffffffff1673ffffffffffffffffffffffffffffffffffffffff16815260200180602001806020018681526020018581526020018473ffffffffffffffffffffffffffffffffffffffff1673ffffffffffffffffffffffffffffffffffffffff168152602001838103835288818151815260200191508051906020019080838360005b838110156200083057808201518184015260208101905062000813565b50505050905090810190601f1680156200085e5780820380516001836020036101000a031916815260200191505b50838103825287818151815260200191508051906020019080838360005b83811015620008995780820151818401526020810190506200087c565b50505050905090810190601f168015620008c75780820380516001836020036101000a031916815260200191505b509850505050505050505060405180910390f35b348015620008e857600080fd5b50620008f3620019fa565b604051808215151515815260200191505060405180910390f35b3480156200091a57600080fd5b5062000951600480360381019080803573ffffffffffffffffffffffffffffffffffffffff16906020019092919050505062001a7a565b604051808215151515815260200191505060405180910390f35b3480156200097857600080fd5b50620009f5600480360381019080803573ffffffffffffffffffffffffffffffffffffffff169060200190929190803590602001908201803590602001908080601f016020809104026020016040519081016040528093929190818152602001838380828437820191505050505050919291929050505062001b7e565b604051808215151515815260200191505060405180910390f35b34801562000a1c57600080fd5b5062000a53600480360381019080803573ffffffffffffffffffffffffffffffffffffffff16906020019092919050505062001cf3565b604051808215151515815260200191505060405180910390f35b34801562000a7a57600080fd5b5062000a9b6004803603810190808035906020019092919050505062001df7565b604051808273ffffffffffffffffffffffffffffffffffffffff1673ffffffffffffffffffffffffffffffffffffffff16815260200191505060405180910390f35b34801562000aea57600080fd5b5062000af562001e36565b604051808215151515815260200191505060405180910390f35b34801562000b1c57600080fd5b5062000b2762001eb5565b6040518080602001828103825283818151815260200191508051906020019060200280838360005b8381101562000b6c57808201518184015260208101905062000b4f565b505050509050019250505060405180910390f35b34801562000b8d57600080fd5b5062000bc4600480360381019080803573ffffffffffffffffffffffffffffffffffffffff16906020019092919050505062001f62565b005b606060008060149054906101000a900460ff1615151562000be657600080fd5b8290508073ffffffffffffffffffffffffffffffffffffffff1663b5400ed96040518163ffffffff167c0100000000000000000000000000000000000000000000000000000000028152600401600060405180830381600087803b15801562000c4e57600080fd5b505af115801562000c63573d6000803e3d6000fd5b505050506040513d6000823e3d601f19601f82011682018060405250602081101562000c8e57600080fd5b81019080805164010000000081111562000ca757600080fd5b8281019050602081018481111562000cbe57600080fd5b815185602082028301116401000000008211171562000cdc57600080fd5b5050929190505050915050919050565b600080600060149054906101000a900460ff1615151562000d0c57600080fd5b8390508073ffffffffffffffffffffffffffffffffffffffff1663281e9dfd33856040518363ffffffff167c0100000000000000000000000000000000000000000000000000000000028152600401808373ffffffffffffffffffffffffffffffffffffffff1673ffffffffffffffffffffffffffffffffffffffff1681526020018273ffffffffffffffffffffffffffffffffffffffff1673ffffffffffffffffffffffffffffffffffffffff16815260200192505050602060405180830381600087803b15801562000ddf57600080fd5b505af115801562000df4573d6000803e3d6000fd5b505050506040513d602081101562000e0b57600080fd5b810190808051906020019092919050505091505092915050565b600080600060149054906101000a900460ff1615151562000e4557600080fd5b3385858562000e53620020c7565b808573ffffffffffffffffffffffffffffffffffffffff1673ffffffffffffffffffffffffffffffffffffffff1681526020018060200180602001848152602001838103835286818151815260200191508051906020019080838360005b8381101562000ece57808201518184015260208101905062000eb1565b50505050905090810190601f16801562000efc5780820380516001836020036101000a031916815260200191505b50838103825285818151815260200191508051906020019080838360005b8381101562000f3757808201518184015260208101905062000f1a565b50505050905090810190601f16801562000f655780820380516001836020036101000a031916815260200191505b509650505050505050604051809103906000f08015801562000f8b573d6000803e3d6000fd5b509050600260003373ffffffffffffffffffffffffffffffffffffffff1673ffffffffffffffffffffffffffffffffffffffff1681526020019081526020016000208190806001815401808255809150509060018203906000526020600020016000909192909190916101000a81548173ffffffffffffffffffffffffffffffffffffffff021916908373ffffffffffffffffffffffffffffffffffffffff1602179055505060018190806001815401808255809150509060018203906000526020600020016000909192909190916101000a81548173ffffffffffffffffffffffffffffffffffffffff021916908373ffffffffffffffffffffffffffffffffffffffff16021790555050809150509392505050565b6000809054906101000a900473ffffffffffffffffffffffffffffffffffffffff1673ffffffffffffffffffffffffffffffffffffffff163373ffffffffffffffffffffffffffffffffffffffff16141515620010fe57600080fd5b6000809054906101000a900473ffffffffffffffffffffffffffffffffffffffff1673ffffffffffffffffffffffffffffffffffffffff16ff5b6060600080600060149054906101000a900460ff161515156200115a57600080fd5b8490508073ffffffffffffffffffffffffffffffffffffffff166378350073856040518263ffffffff167c0100000000000000000000000000000000000000000000000000000000028152600401808273ffffffffffffffffffffffffffffffffffffffff1673ffffffffffffffffffffffffffffffffffffffff168152602001915050600060405180830381600087803b158015620011f957600080fd5b505af11580156200120e573d6000803e3d6000fd5b505050506040513d6000823e3d601f19601f8201168201806040525060408110156200123957600080fd5b8101908080516401000000008111156200125257600080fd5b828101905060208101848111156200126957600080fd5b81518560018202830111640100000000821117156200128757600080fd5b5050929190602001805190602001909291905050508093508194505050509250929050565b60008060008491508173ffffffffffffffffffffffffffffffffffffffff16639db069d86040518163ffffffff167c0100000000000000000000000000000000000000000000000000000000028152600401602060405180830381600087803b1580156200131957600080fd5b505af11580156200132e573d6000803e3d6000fd5b505050506040513d60208110156200134557600080fd5b810190808051906020019092919050505090503373ffffffffffffffffffffffffffffffffffffffff168173ffffffffffffffffffffffffffffffffffffffff161415156200139357600080fd5b8373ffffffffffffffffffffffffffffffffffffffff166108fc349081150290604051600060405180830381858888f19350505050158015620013da573d6000803e3d6000fd5b508173ffffffffffffffffffffffffffffffffffffffff1663cf75bf9d336040518263ffffffff167c0100000000000000000000000000000000000000000000000000000000028152600401808273ffffffffffffffffffffffffffffffffffffffff1673ffffffffffffffffffffffffffffffffffffffff168152602001915050602060405180830381600087803b1580156200147757600080fd5b505af11580156200148c573d6000803e3d6000fd5b505050506040513d6020811015620014a357600080fd5b81019080805190602001909291905050505060019250505092915050565b6000809054906101000a900473ffffffffffffffffffffffffffffffffffffffff1673ffffffffffffffffffffffffffffffffffffffff163373ffffffffffffffffffffffffffffffffffffffff161415156200151d57600080fd5b6000809054906101000a900473ffffffffffffffffffffffffffffffffffffffff1673ffffffffffffffffffffffffffffffffffffffff167ff8df31144d9c2f0f6b59d69b8b98abd5459d07f2742c4df920b25aae33c6482060405160405180910390a260008060006101000a81548173ffffffffffffffffffffffffffffffffffffffff021916908373ffffffffffffffffffffffffffffffffffffffff160217905550565b600060149054906101000a900460ff1681565b606060008290508073ffffffffffffffffffffffffffffffffffffffff1663b2b9023c6040518163ffffffff167c0100000000000000000000000000000000000000000000000000000000028152600401600060405180830381600087803b1580156200164357600080fd5b505af115801562001658573d6000803e3d6000fd5b505050506040513d6000823e3d601f19601f8201168201806040525060208110156200168357600080fd5b8101908080516401000000008111156200169c57600080fd5b82810190506020810184811115620016b357600080fd5b8151856020820283011164010000000082111715620016d157600080fd5b5050929190505050915050919050565b6060600060149054906101000a900460ff161515156200170057600080fd5b600260008373ffffffffffffffffffffffffffffffffffffffff1673ffffffffffffffffffffffffffffffffffffffff168152602001908152602001600020805480602002602001604051908101604052809291908181526020018280548015620017c157602002820191906000526020600020905b8160009054906101000a900473ffffffffffffffffffffffffffffffffffffffff1673ffffffffffffffffffffffffffffffffffffffff168152602001906001019080831162001776575b50505050509050919050565b6000809054906101000a900473ffffffffffffffffffffffffffffffffffffffff1681565b6002602052816000526040600020818154811015156200180e57fe5b906000526020600020016000915091509054906101000a900473ffffffffffffffffffffffffffffffffffffffff1681565b6000606080600080600080600060149054906101000a900460ff161515156200186857600080fd5b8790508073ffffffffffffffffffffffffffffffffffffffff1663787fe55c6040518163ffffffff167c0100000000000000000000000000000000000000000000000000000000028152600401600060405180830381600087803b158015620018d057600080fd5b505af1158015620018e5573d6000803e3d6000fd5b505050506040513d6000823e3d601f19601f8201168201806040525060a08110156200191057600080fd5b810190808051906020019092919080516401000000008111156200193357600080fd5b828101905060208101848111156200194a57600080fd5b81518560018202830111640100000000821117156200196857600080fd5b505092919060200180516401000000008111156200198557600080fd5b828101905060208101848111156200199c57600080fd5b8151856001820283011164010000000082111715620019ba57600080fd5b50509291906020018051906020019092919080519060200190929190505050809750819850829950839a50849b5050505050508791505091939550919395565b60008060009054906101000a900473ffffffffffffffffffffffffffffffffffffffff1673ffffffffffffffffffffffffffffffffffffffff163373ffffffffffffffffffffffffffffffffffffffff1614151562001a5857600080fd5b6001600060146101000a81548160ff0219169083151502179055506001905090565b600080600060149054906101000a900460ff1615151562001a9a57600080fd5b8290508073ffffffffffffffffffffffffffffffffffffffff1663bcc90749336040518263ffffffff167c0100000000000000000000000000000000000000000000000000000000028152600401808273ffffffffffffffffffffffffffffffffffffffff1673ffffffffffffffffffffffffffffffffffffffff168152602001915050602060405180830381600087803b15801562001b3957600080fd5b505af115801562001b4e573d6000803e3d6000fd5b505050506040513d602081101562001b6557600080fd5b8101908080519060200190929190505050915050919050565b600080600060149054906101000a900460ff1615151562001b9e57600080fd5b8390508073ffffffffffffffffffffffffffffffffffffffff1663e841c82f33856040518363ffffffff167c0100000000000000000000000000000000000000000000000000000000028152600401808373ffffffffffffffffffffffffffffffffffffffff1673ffffffffffffffffffffffffffffffffffffffff16815260200180602001828103825283818151815260200191508051906020019080838360005b8381101562001c5e57808201518184015260208101905062001c41565b50505050905090810190601f16801562001c8c5780820380516001836020036101000a031916815260200191505b509350505050602060405180830381600087803b15801562001cad57600080fd5b505af115801562001cc2573d6000803e3d6000fd5b505050506040513d602081101562001cd957600080fd5b810190808051906020019092919050505091505092915050565b600080600060149054906101000a900460ff1615151562001d1357600080fd5b8290508073ffffffffffffffffffffffffffffffffffffffff1663cf75bf9d336040518263ffffffff167c0100000000000000000000000000000000000000000000000000000000028152600401808273ffffffffffffffffffffffffffffffffffffffff1673ffffffffffffffffffffffffffffffffffffffff168152602001915050602060405180830381600087803b15801562001db257600080fd5b505af115801562001dc7573d6000803e3d6000fd5b505050506040513d602081101562001dde57600080fd5b8101908080519060200190929190505050915050919050565b60018181548110151562001e0757fe5b906000526020600020016000915054906101000a900473ffffffffffffffffffffffffffffffffffffffff1681565b60008060009054906101000a900473ffffffffffffffffffffffffffffffffffffffff1673ffffffffffffffffffffffffffffffffffffffff163373ffffffffffffffffffffffffffffffffffffffff1614151562001e9457600080fd5b60008060146101000a81548160ff0219169083151502179055506001905090565b6060600060149054906101000a900460ff1615151562001ed457600080fd5b600180548060200260200160405190810160405280929190818152602001828054801562001f5857602002820191906000526020600020905b8160009054906101000a900473ffffffffffffffffffffffffffffffffffffffff1673ffffffffffffffffffffffffffffffffffffffff168152602001906001019080831162001f0d575b5050505050905090565b6000809054906101000a900473ffffffffffffffffffffffffffffffffffffffff1673ffffffffffffffffffffffffffffffffffffffff163373ffffffffffffffffffffffffffffffffffffffff1614151562001fbe57600080fd5b62001fc98162001fcc565b50565b600073ffffffffffffffffffffffffffffffffffffffff168173ffffffffffffffffffffffffffffffffffffffff16141515156200200957600080fd5b8073ffffffffffffffffffffffffffffffffffffffff166000809054906101000a900473ffffffffffffffffffffffffffffffffffffffff1673ffffffffffffffffffffffffffffffffffffffff167f8be0079c531659141344cd1fd0a4f28419497f9722a3daafe3b4186f6b6457e060405160405180910390a3806000806101000a81548173ffffffffffffffffffffffffffffffffffffffff021916908373ffffffffffffffffffffffffffffffffffffffff16021790555050565b60405161156580620020d983390190560060806040523480156200001157600080fd5b50604051620015653803806200156583398101806040528101908080519060200190929190805182019291906020018051820192919060200180519060200190929190505050836000806101000a81548173ffffffffffffffffffffffffffffffffffffffff021916908373ffffffffffffffffffffffffffffffffffffffff1602179055508260019080519060200190620000af92919062000154565b508160029080519060200190620000c892919062000154565b50806003819055506000600460006101000a81548160ff02191690836001811115620000f057fe5b02179055507fe7aa86b5f291bdcb40db26f6033a746a356aaabc62fcfc2be8c133b139bb39db600460009054906101000a900460ff16604051808260018111156200013757fe5b60ff16815260200191505060405180910390a15050505062000203565b828054600181600116156101000203166002900490600052602060002090601f016020900481019282601f106200019757805160ff1916838001178555620001c8565b82800160010185558215620001c8579182015b82811115620001c7578251825591602001919060010190620001aa565b5b509050620001d79190620001db565b5090565b6200020091905b80821115620001fc576000816000905550600101620001e2565b5090565b90565b61135280620002136000396000f3006080604052600436106100db576000357c0100000000000000000000000000000000000000000000000000000000900463ffffffff168063228cb733146100e0578063281e9dfd1461010b57806330c3efe5146101865780634a79d50c146101f35780637284e416146102835780637835007314610313578063787fe55c146103da5780639db069d814610517578063b2b9023c1461056e578063b5400ed9146105da578063bcc9074914610646578063c19d93fb146106a1578063c33fc1d4146106da578063cf75bf9d14610747578063e841c82f146107a2575b600080fd5b3480156100ec57600080fd5b506100f5610815565b6040518082815260200191505060405180910390f35b34801561011757600080fd5b5061016c600480360381019080803573ffffffffffffffffffffffffffffffffffffffff169060200190929190803573ffffffffffffffffffffffffffffffffffffffff16906020019092919050505061081b565b604051808215151515815260200191505060405180910390f35b34801561019257600080fd5b506101b160048036038101908080359060200190929190505050610945565b604051808273ffffffffffffffffffffffffffffffffffffffff1673ffffffffffffffffffffffffffffffffffffffff16815260200191505060405180910390f35b3480156101ff57600080fd5b50610208610983565b6040518080602001828103825283818151815260200191508051906020019080838360005b8381101561024857808201518184015260208101905061022d565b50505050905090810190601f1680156102755780820380516001836020036101000a031916815260200191505b509250505060405180910390f35b34801561028f57600080fd5b50610298610a21565b6040518080602001828103825283818151815260200191508051906020019080838360005b838110156102d85780820151818401526020810190506102bd565b50505050905090810190601f1680156103055780820380516001836020036101000a031916815260200191505b509250505060405180910390f35b34801561031f57600080fd5b50610354600480360381019080803573ffffffffffffffffffffffffffffffffffffffff169060200190929190505050610abf565b604051808060200183151515158152602001828103825284818151815260200191508051906020019080838360005b8381101561039e578082015181840152602081019050610383565b50505050905090810190601f1680156103cb5780820380516001836020036101000a031916815260200191505b50935050505060405180910390f35b3480156103e657600080fd5b506103ef610bfa565b604051808673ffffffffffffffffffffffffffffffffffffffff1673ffffffffffffffffffffffffffffffffffffffff1681526020018060200180602001858152602001848152602001838103835287818151815260200191508051906020019080838360005b83811015610471578082015181840152602081019050610456565b50505050905090810190601f16801561049e5780820380516001836020036101000a031916815260200191505b50838103825286818151815260200191508051906020019080838360005b838110156104d75780820151818401526020810190506104bc565b50505050905090810190601f1680156105045780820380516001836020036101000a031916815260200191505b5097505050505050505060405180910390f35b34801561052357600080fd5b5061052c610db1565b604051808273ffffffffffffffffffffffffffffffffffffffff1673ffffffffffffffffffffffffffffffffffffffff16815260200191505060405180910390f35b34801561057a57600080fd5b50610583610dd6565b6040518080602001828103825283818151815260200191508051906020019060200280838360005b838110156105c65780820151818401526020810190506105ab565b505050509050019250505060405180910390f35b3480156105e657600080fd5b506105ef610e64565b6040518080602001828103825283818151815260200191508051906020019060200280838360005b83811015610632578082015181840152602081019050610617565b505050509050019250505060405180910390f35b34801561065257600080fd5b50610687600480360381019080803573ffffffffffffffffffffffffffffffffffffffff169060200190929190505050610ef2565b604051808215151515815260200191505060405180910390f35b3480156106ad57600080fd5b506106b6610f48565b604051808260018111156106c657fe5b60ff16815260200191505060405180910390f35b3480156106e657600080fd5b5061070560048036038101908080359060200190929190505050610f5b565b604051808273ffffffffffffffffffffffffffffffffffffffff1673ffffffffffffffffffffffffffffffffffffffff16815260200191505060405180910390f35b34801561075357600080fd5b50610788600480360381019080803573ffffffffffffffffffffffffffffffffffffffff169060200190929190505050610f99565b604051808215151515815260200191505060405180910390f35b3480156107ae57600080fd5b506107fb600480360381019080803573ffffffffffffffffffffffffffffffffffffffff169060200190929190803590602001908201803590602001919091929391929390505050611079565b604051808215151515815260200191505060405180910390f35b60035481565b6000828073ffffffffffffffffffffffffffffffffffffffff166000809054906101000a900473ffffffffffffffffffffffffffffffffffffffff1673ffffffffffffffffffffffffffffffffffffffff1614151561087957600080fd5b6001600560008573ffffffffffffffffffffffffffffffffffffffff1673ffffffffffffffffffffffffffffffffffffffff16815260200190815260200160002060010160006101000a81548160ff02191690831515021790555060088390806001815401808255809150509060018203906000526020600020016000909192909190916101000a81548173ffffffffffffffffffffffffffffffffffffffff021916908373ffffffffffffffffffffffffffffffffffffffff16021790555050600191505092915050565b60088181548110151561095457fe5b906000526020600020016000915054906101000a900473ffffffffffffffffffffffffffffffffffffffff1681565b60018054600181600116156101000203166002900480601f016020809104026020016040519081016040528092919081815260200182805460018160011615610100020316600290048015610a195780601f106109ee57610100808354040283529160200191610a19565b820191906000526020600020905b8154815290600101906020018083116109fc57829003601f168201915b505050505081565b60028054600181600116156101000203166002900480601f016020809104026020016040519081016040528092919081815260200182805460018160011615610100020316600290048015610ab75780601f10610a8c57610100808354040283529160200191610ab7565b820191906000526020600020905b815481529060010190602001808311610a9a57829003601f168201915b505050505081565b60606000600560008473ffffffffffffffffffffffffffffffffffffffff1673ffffffffffffffffffffffffffffffffffffffff168152602001908152602001600020600001600560008573ffffffffffffffffffffffffffffffffffffffff1673ffffffffffffffffffffffffffffffffffffffff16815260200190815260200160002060010160009054906101000a900460ff16818054600181600116156101000203166002900480601f016020809104026020016040519081016040528092919081815260200182805460018160011615610100020316600290048015610bea5780601f10610bbf57610100808354040283529160200191610bea565b820191906000526020600020905b815481529060010190602001808311610bcd57829003601f168201915b5050505050915091509150915091565b60006060806000806000809054906101000a900473ffffffffffffffffffffffffffffffffffffffff166001600260035460006001811115610c3857fe5b600460009054906101000a900460ff166001811115610c5357fe5b14610c5f576001610c62565b60005b838054600181600116156101000203166002900480601f016020809104026020016040519081016040528092919081815260200182805460018160011615610100020316600290048015610cf75780601f10610ccc57610100808354040283529160200191610cf7565b820191906000526020600020905b815481529060010190602001808311610cda57829003601f168201915b50505050509350828054600181600116156101000203166002900480601f016020809104026020016040519081016040528092919081815260200182805460018160011615610100020316600290048015610d935780601f10610d6857610100808354040283529160200191610d93565b820191906000526020600020905b815481529060010190602001808311610d7657829003601f168201915b505050505092508060ff169050945094509450945094509091929394565b6000809054906101000a900473ffffffffffffffffffffffffffffffffffffffff1681565b60606008805480602002602001604051908101604052809291908181526020018280548015610e5a57602002820191906000526020600020905b8160009054906101000a900473ffffffffffffffffffffffffffffffffffffffff1673ffffffffffffffffffffffffffffffffffffffff1681526020019060010190808311610e10575b5050505050905090565b60606007805480602002602001604051908101604052809291908181526020018280548015610ee857602002820191906000526020600020905b8160009054906101000a900473ffffffffffffffffffffffffffffffffffffffff1673ffffffffffffffffffffffffffffffffffffffff1681526020019060010190808311610e9e575b5050505050905090565b6000600660008373ffffffffffffffffffffffffffffffffffffffff1673ffffffffffffffffffffffffffffffffffffffff16815260200190815260200160002060009054906101000a900460ff169050919050565b600460009054906101000a900460ff1681565b600781815481101515610f6a57fe5b906000526020600020016000915054906101000a900473ffffffffffffffffffffffffffffffffffffffff1681565b6000818073ffffffffffffffffffffffffffffffffffffffff166000809054906101000a900473ffffffffffffffffffffffffffffffffffffffff1673ffffffffffffffffffffffffffffffffffffffff16141515610ff757600080fd5b7fa8fa536e8394354d0d4edc909c2fadced5c7d8c3531335629cd49edfa1ce30a4600460009054906101000a900460ff166040518082600181111561103857fe5b60ff16815260200191505060405180910390a1600191506001600460006101000a81548160ff0219169083600181111561106e57fe5b021790555050919050565b60008060009054906101000a900473ffffffffffffffffffffffffffffffffffffffff1673ffffffffffffffffffffffffffffffffffffffff168473ffffffffffffffffffffffffffffffffffffffff16141515156110d757600080fd5b600060018111156110e457fe5b600460009054906101000a900460ff1660018111156110ff57fe5b14151561110b57600080fd5b8282600560008773ffffffffffffffffffffffffffffffffffffffff1673ffffffffffffffffffffffffffffffffffffffff168152602001908152602001600020600001919061115c929190611281565b506000600560008673ffffffffffffffffffffffffffffffffffffffff1673ffffffffffffffffffffffffffffffffffffffff16815260200190815260200160002060010160006101000a81548160ff02191690831515021790555060078490806001815401808255809150509060018203906000526020600020016000909192909190916101000a81548173ffffffffffffffffffffffffffffffffffffffff021916908373ffffffffffffffffffffffffffffffffffffffff160217905550506001600660008673ffffffffffffffffffffffffffffffffffffffff1673ffffffffffffffffffffffffffffffffffffffff16815260200190815260200160002060006101000a81548160ff021916908315150217905550600190509392505050565b828054600181600116156101000203166002900490600052602060002090601f016020900481019282601f106112c257803560ff19168380011785556112f0565b828001600101855582156112f0579182015b828111156112ef5782358255916020019190600101906112d4565b5b5090506112fd9190611301565b5090565b61132391905b8082111561131f576000816000905550600101611307565b5090565b905600a165627a7a72305820d70e95beab079a076dce9ce71e25376d5173c551cec65ae1da01d111d0e9089c0029a165627a7a7230582089ea7a02ce777886afd2b2736d45a84da1c8ed62619761c064726fdf4187fb230029",
  "source": "pragma solidity ^0.4.24;\n\nimport \"./CircuitBreaker.sol\";\nimport \"./Bounty.sol\";\n\n/** @title Bounty Hub. */\n/** @dev inherit Circuit Breaker */\ncontract BountyHub is CircuitBreaker {\n    // Arrays to manage Bounty.\n    address[] public bountyAddress;\n\n    // One Address can make many bounties.\n    mapping(address => address[]) public bountyAddressByOwner;\n\n    /** @dev Stop Contract in Emergency.\n      * @return success.\n      */\n    function stopBountyHub() public onlyOwner returns (bool success) {\n        stopped = true;\n        success = true;\n    }\n    \n    /**\n      * @dev Restart Contract when Contract in normal.\n      * @return success.\n      */\n    function restartBountyHub() public onlyOwner returns (bool success) {\n        stopped = false;\n        success = true;\n    }\n\n    /** @dev Create Bounty Contract and save address in arrays.\n      * @param _title Title of Bounty.\n      * @param _description Description of Bounty.\n      * @param _amount Reward.\n      * @return Created Bounty address.\n      */\n    function createBounty(string _title, string _description, uint _amount) stopInEmergency public returns (address) {\n        Bounty newBounty = new Bounty(msg.sender, _title, _description, _amount);\n        bountyAddressByOwner[msg.sender].push(address(newBounty));\n        bountyAddress.push(address(newBounty));\n\n        return address(newBounty);\n    }\n\n    /** @dev Get All Bounty addresses from array.\n      * @return bountyAddress array.\n      */\n    function getAllBountyAddress() stopInEmergency external view returns (address[]) {\n        return bountyAddress;\n    }\n\n    /** @dev Get Bounty addresses of Bounty Owner.\n      * @param _bountyOwner Get address array from mapping bountyAddressByOwner.\n      * @return bountyAddressByOwner array.\n      */\n    function getBountyAddressByOwner(address _bountyOwner) stopInEmergency external view returns (address[]) {\n        return bountyAddressByOwner[_bountyOwner];\n    }\n\n    /** @dev Get Bounty Information(Using Bounty's fetchBounty function).\n      * @param _bountyAddress To use deployed Bounty.\n      * @return Bounty Informations.\n      */\n    function getBountyInfo(address _bountyAddress) stopInEmergency external view returns (address _owner, string _title, string _description, uint _reward, uint _status, address bounty) {\n        Bounty result = Bounty(_bountyAddress);\n        (_owner, _title, _description, _reward, _status) = result.fetchBounty();\n        bounty = _bountyAddress;\n    }\n\n    /** @dev Submit Work to Bounty Contract(Using Bounty's addWork function).\n      * @param _bountyAddress To use deployed Bounty.\n      * @return success\n      */\n    function submitWork(address _bountyAddress, string _comment) stopInEmergency public returns (bool success) {\n        Bounty bounty = Bounty(_bountyAddress);\n        success = bounty.addWork(msg.sender, _comment);\n    }\n\n    /** @dev Get All Hunters(Using Bounty's getAllHunter function).\n      * @param _bountyAddress To use deployed Bounty.\n      * @return All Bounty Hunters.\n      */\n    function getHunterAddress(address _bountyAddress) stopInEmergency external view returns (address[] _hunters) {\n        Bounty bounty = Bounty(_bountyAddress);\n        _hunters = bounty.getAllHunter();\n    }\n\n    /** @dev Get Work Information(Using Bounty's getWork function).\n      * @param _bountyAddress To use deployed Bounty.\n      * @param _hunter To get submitted Work of Hunter.\n      * @return Work Information.\n      */\n    function getWork(address _bountyAddress, address _hunter) stopInEmergency external view returns (string _comment, bool _isAccept) {\n        Bounty bounty = Bounty(_bountyAddress);\n        (_comment, _isAccept) = bounty.getWork(_hunter);\n    }\n\n    /** @dev Get Work participation status(Using Bounty's getParticipationStatus).\n      * @param _bountyAddress To use deployed Bounty.\n      * @return Submit status.\n      */\n    function getParticipationStatus(address _bountyAddress) stopInEmergency external view returns (bool _isSubmit) {\n        Bounty bounty = Bounty(_bountyAddress);\n        _isSubmit = bounty.getParticipationStatus(msg.sender);\n    }\n\n    /** @dev Finish Bounty(Using Bounty's finishBounty function).\n      * @param _bountyAddress To use deployed Bounty.\n      * @return success.\n      */\n    function finishBounty(address _bountyAddress) stopInEmergency public returns (bool success){\n        Bounty bounty = Bounty(_bountyAddress);\n        success = bounty.finishBounty(msg.sender);\n    }\n\n    /** @dev Review Work(Using Bounty's reviewWork function).\n      * @param _bountyAddress To use deployed Bounty.\n      * @param _hunterAddress To use target hunter's Work.\n      * @return success.\n      */\n    function reviewWork(address _bountyAddress, address _hunterAddress) stopInEmergency public returns (bool success){\n        Bounty bounty = Bounty(_bountyAddress);\n        success = bounty.reviewWork(msg.sender, _hunterAddress);\n    }\n\n    /** @dev Get Accepted Hunter to reward(Using Bounty's getAcceptedHunter function).\n      * @param _bountyAddress To use deployed Bounty.\n      * @return Accepted Hunters.\n      */\n    function getAcceptedHunter(address _bountyAddress) external view returns (address[] _hunter) {\n        Bounty bounty = Bounty(_bountyAddress);\n        _hunter = bounty.getAcceptedHunter();\n    }\n\n    /** @dev Pay For the Work.\n      * @param _bountyAddress To use deployed Bounty.\n      * @param _acceptedHunter To Pay Hunter.\n      * @return success.\n      */\n    function payBounty(address _bountyAddress, address _acceptedHunter) public payable returns (bool success) {\n        Bounty bounty = Bounty(_bountyAddress);\n        address bountyOwner = bounty.bountyOwner();\n        require(bountyOwner == msg.sender);\n        _acceptedHunter.transfer(msg.value);\n        bounty.finishBounty(msg.sender);\n        return true;\n    }\n}",
  "sourcePath": "C:\\Users\\shinh\\bounty-dapp\\contracts\\BountyHub.sol",
  "compiler": {
    "name": "solc",
    "version": "0.4.24+commit.e67f0147.Emscripten.clang"
  },
  "schemaVersion": "2.0.1",
  "updatedAt": "2018-08-27T17:00:29.476Z"
}