{
  "contractName": "Demo",
  "abi": [
    {
      "constant": false,
      "inputs": [
        {
          "name": "_data",
          "type": "string"
        }
      ],
      "name": "setData",
      "outputs": [],
      "payable": false,
      "stateMutability": "nonpayable",
      "type": "function"
    },
    {
      "constant": true,
      "inputs": [],
      "name": "toUpper",
      "outputs": [
        {
          "name": "",
          "type": "string"
        }
      ],
      "payable": false,
      "stateMutability": "view",
      "type": "function"
    }
  ],
  "bytecode": "0x608060405234801561001057600080fd5b50610340806100206000396000f30060806040526004361061004c576000357c0100000000000000000000000000000000000000000000000000000000900463ffffffff16806347064d6a146100515780639f9e1382146100ba575b600080fd5b34801561005d57600080fd5b506100b8600480360381019080803590602001908201803590602001908080601f016020809104026020016040519081016040528093929190818152602001838380828437820191505050505050919291929050505061014a565b005b3480156100c657600080fd5b506100cf610164565b6040518080602001828103825283818151815260200191508051906020019080838360005b8381101561010f5780820151818401526020810190506100f4565b50505050905090810190601f16801561013c5780820380516001836020036101000a031916815260200191505b509250505060405180910390f35b806000908051906020019061016092919061026f565b5050565b606080600073__LibraryDemo___________________________63ddb1a1e490916040518263ffffffff167c01000000000000000000000000000000000000000000000000000000000281526004018082815260200191505060006040518083038186803b1580156101d557600080fd5b505af41580156101e9573d6000803e3d6000fd5b505050506040513d6000823e3d601f19601f82011682018060405250602081101561021357600080fd5b81019080805164010000000081111561022b57600080fd5b8281019050602081018481111561024157600080fd5b815185600182028301116401000000008211171561025e57600080fd5b505092919050505090508091505090565b828054600181600116156101000203166002900490600052602060002090601f016020900481019282601f106102b057805160ff19168380011785556102de565b828001600101855582156102de579182015b828111156102dd5782518255916020019190600101906102c2565b5b5090506102eb91906102ef565b5090565b61031191905b8082111561030d5760008160009055506001016102f5565b5090565b905600a165627a7a72305820ac2d04c3d92486c540a653326e5a5ea91962508ebb015caa3aeb09a2ba26f2850029",
  "source": "pragma solidity ^0.4.24;\n\n/** @title LibraryDemo. */\nlibrary LibraryDemo {\n    /** @dev change lowercase to uppercase.\n      * @param str String that mixed with lowercase and uppercase.\n      * @return Uppercase string.\n      */\n    function toUppercase(string storage str) public pure returns (string memory) {\n        bytes memory temp = bytes(str);\n        require(temp.length != 0);\n        for(uint i=0; i<temp.length; i++) {\n            if(temp[i] >= 97 && temp[i] <= 122) {\n                temp[i] = bytes1(int(temp[i]) - 32);\n            }\n        }\n        return string(temp);\n    }\n}\n\n/** @title Demo. */\ncontract Demo {\n    using LibraryDemo for string;\n    string data;\n\n    /** @dev Set data state variable\n      * @param _data To set state variable\n      */\n    function setData(string _data) public {\n        data = _data;\n    }\n    /** @dev Return uppercase changed data variable\n      * @return Uppercase changed data\n      */\n    function toUpper() public view returns (string memory) {\n        string memory temp;\n        temp = data.toUppercase();\n        return temp;\n    }\n}",
  "sourcePath": "C:\\Users\\shinh\\bounty-dapp\\contracts\\LibraryDemo.sol",
  "compiler": {
    "name": "solc",
    "version": "0.4.24+commit.e67f0147.Emscripten.clang"
  },
  "schemaVersion": "2.0.1",
  "updatedAt": "2018-08-27T17:00:29.468Z"
}