{
  "contractName": "LibraryDemo",
  "abi": [
    {
      "constant": true,
      "inputs": [
        {
          "name": "str",
          "type": "string storage"
        }
      ],
      "name": "toUppercase",
      "outputs": [
        {
          "name": "",
          "type": "string"
        }
      ],
      "payable": false,
      "stateMutability": "pure",
      "type": "function"
    }
  ],
  "bytecode": "0x610428610030600b82828239805160001a6073146000811461002057610022565bfe5b5030600052607381538281f3007300000000000000000000000000000000000000003014608060405260043610610058576000357c0100000000000000000000000000000000000000000000000000000000900463ffffffff168063ddb1a1e41461005d575b600080fd5b61007b600480360381019080803590602001909291905050506100f6565b6040518080602001828103825283818151815260200191508051906020019080838360005b838110156100bb5780820151818401526020810190506100a0565b50505050905090810190601f1680156100e85780820380516001836020036101000a031916815260200191505b509250505060405180910390f35b6060806000838054600181600116156101000203166002900480601f0160208091040260200160405190810160405280929190818152602001828054600181600116156101000203166002900480156101905780601f1061016557610100808354040283529160200191610190565b820191906000526020600020905b81548152906001019060200180831161017357829003601f168201915b5050505050915060008251141515156101a857600080fd5b600090505b81518110156103f25760617f01000000000000000000000000000000000000000000000000000000000000000282828151811015156101e857fe5b9060200101517f010000000000000000000000000000000000000000000000000000000000000090047f0100000000000000000000000000000000000000000000000000000000000000027effffffffffffffffffffffffffffffffffffffffffffffffffffffffffffff1916101580156103005750607a7f010000000000000000000000000000000000000000000000000000000000000002828281518110151561029057fe5b9060200101517f010000000000000000000000000000000000000000000000000000000000000090047f0100000000000000000000000000000000000000000000000000000000000000027effffffffffffffffffffffffffffffffffffffffffffffffffffffffffffff191611155b156103e5576020828281518110151561031557fe5b9060200101517f010000000000000000000000000000000000000000000000000000000000000090047f0100000000000000000000000000000000000000000000000000000000000000027f01000000000000000000000000000000000000000000000000000000000000009004037f01000000000000000000000000000000000000000000000000000000000000000282828151811015156103b457fe5b9060200101907effffffffffffffffffffffffffffffffffffffffffffffffffffffffffffff1916908160001a9053505b80806001019150506101ad565b81925050509190505600a165627a7a72305820286228a6e9c931196bc5ca8ec4a810109be2090b76a75a2eb14bde163b44043a0029",
  "source": "pragma solidity ^0.4.24;\n\n/** @title LibraryDemo. */\nlibrary LibraryDemo {\n    /** @dev change lowercase to uppercase.\n      * @param str String that mixed with lowercase and uppercase.\n      * @return Uppercase string.\n      */\n    function toUppercase(string storage str) public pure returns (string memory) {\n        bytes memory temp = bytes(str);\n        require(temp.length != 0);\n        for(uint i=0; i<temp.length; i++) {\n            if(temp[i] >= 97 && temp[i] <= 122) {\n                temp[i] = bytes1(int(temp[i]) - 32);\n            }\n        }\n        return string(temp);\n    }\n}\n\n/** @title Demo. */\ncontract Demo {\n    using LibraryDemo for string;\n    string data;\n\n    /** @dev Set data state variable\n      * @param _data To set state variable\n      */\n    function setData(string _data) public {\n        data = _data;\n    }\n    /** @dev Return uppercase changed data variable\n      * @return Uppercase changed data\n      */\n    function toUpper() public view returns (string memory) {\n        string memory temp;\n        temp = data.toUppercase();\n        return temp;\n    }\n}",
  "sourcePath": "C:\\Users\\shinh\\bounty-dapp\\contracts\\LibraryDemo.sol",
  "compiler": {
    "name": "solc",
    "version": "0.4.24+commit.e67f0147.Emscripten.clang"
  },
  "schemaVersion": "2.0.1",
  "updatedAt": "2018-08-27T17:00:29.469Z"
}