{
  "contractName": "Bounty",
  "abi": [
    {
      "constant": true,
      "inputs": [],
      "name": "reward",
      "outputs": [
        {
          "name": "",
          "type": "uint256"
        }
      ],
      "payable": false,
      "stateMutability": "view",
      "type": "function"
    },
    {
      "constant": true,
      "inputs": [
        {
          "name": "",
          "type": "uint256"
        }
      ],
      "name": "acceptedHunter",
      "outputs": [
        {
          "name": "",
          "type": "address"
        }
      ],
      "payable": false,
      "stateMutability": "view",
      "type": "function"
    },
    {
      "constant": true,
      "inputs": [],
      "name": "title",
      "outputs": [
        {
          "name": "",
          "type": "string"
        }
      ],
      "payable": false,
      "stateMutability": "view",
      "type": "function"
    },
    {
      "constant": true,
      "inputs": [],
      "name": "description",
      "outputs": [
        {
          "name": "",
          "type": "string"
        }
      ],
      "payable": false,
      "stateMutability": "view",
      "type": "function"
    },
    {
      "constant": true,
      "inputs": [],
      "name": "bountyOwner",
      "outputs": [
        {
          "name": "",
          "type": "address"
        }
      ],
      "payable": false,
      "stateMutability": "view",
      "type": "function"
    },
    {
      "constant": true,
      "inputs": [],
      "name": "state",
      "outputs": [
        {
          "name": "",
          "type": "uint8"
        }
      ],
      "payable": false,
      "stateMutability": "view",
      "type": "function"
    },
    {
      "constant": true,
      "inputs": [
        {
          "name": "",
          "type": "uint256"
        }
      ],
      "name": "hunter",
      "outputs": [
        {
          "name": "",
          "type": "address"
        }
      ],
      "payable": false,
      "stateMutability": "view",
      "type": "function"
    },
    {
      "inputs": [
        {
          "name": "_bountyOwner",
          "type": "address"
        },
        {
          "name": "_title",
          "type": "string"
        },
        {
          "name": "_description",
          "type": "string"
        },
        {
          "name": "_reward",
          "type": "uint256"
        }
      ],
      "payable": false,
      "stateMutability": "nonpayable",
      "type": "constructor"
    },
    {
      "anonymous": false,
      "inputs": [
        {
          "indexed": false,
          "name": "_state",
          "type": "uint8"
        }
      ],
      "name": "Posted",
      "type": "event"
    },
    {
      "anonymous": false,
      "inputs": [
        {
          "indexed": false,
          "name": "_state",
          "type": "uint8"
        }
      ],
      "name": "Finished",
      "type": "event"
    },
    {
      "anonymous": false,
      "inputs": [
        {
          "indexed": false,
          "name": "_hunter",
          "type": "address"
        },
        {
          "indexed": false,
          "name": "_isSubmit",
          "type": "bool"
        }
      ],
      "name": "Submitted",
      "type": "event"
    },
    {
      "anonymous": false,
      "inputs": [
        {
          "indexed": false,
          "name": "_hunter",
          "type": "address"
        },
        {
          "indexed": false,
          "name": "_isAccep",
          "type": "bool"
        }
      ],
      "name": "Accepted",
      "type": "event"
    },
    {
      "constant": false,
      "inputs": [
        {
          "name": "_bountyOwner",
          "type": "address"
        }
      ],
      "name": "finishBounty",
      "outputs": [
        {
          "name": "success",
          "type": "bool"
        }
      ],
      "payable": false,
      "stateMutability": "nonpayable",
      "type": "function"
    },
    {
      "constant": true,
      "inputs": [],
      "name": "fetchBounty",
      "outputs": [
        {
          "name": "",
          "type": "address"
        },
        {
          "name": "",
          "type": "string"
        },
        {
          "name": "",
          "type": "string"
        },
        {
          "name": "",
          "type": "uint256"
        },
        {
          "name": "",
          "type": "uint256"
        }
      ],
      "payable": false,
      "stateMutability": "view",
      "type": "function"
    },
    {
      "constant": false,
      "inputs": [
        {
          "name": "_hunter",
          "type": "address"
        },
        {
          "name": "_comment",
          "type": "string"
        }
      ],
      "name": "addWork",
      "outputs": [
        {
          "name": "",
          "type": "bool"
        }
      ],
      "payable": false,
      "stateMutability": "nonpayable",
      "type": "function"
    },
    {
      "constant": true,
      "inputs": [],
      "name": "getAllHunter",
      "outputs": [
        {
          "name": "",
          "type": "address[]"
        }
      ],
      "payable": false,
      "stateMutability": "view",
      "type": "function"
    },
    {
      "constant": true,
      "inputs": [
        {
          "name": "_hunter",
          "type": "address"
        }
      ],
      "name": "getWork",
      "outputs": [
        {
          "name": "",
          "type": "string"
        },
        {
          "name": "",
          "type": "bool"
        }
      ],
      "payable": false,
      "stateMutability": "view",
      "type": "function"
    },
    {
      "constant": false,
      "inputs": [
        {
          "name": "_bountyOwner",
          "type": "address"
        },
        {
          "name": "_hunterAddress",
          "type": "address"
        }
      ],
      "name": "reviewWork",
      "outputs": [
        {
          "name": "success",
          "type": "bool"
        }
      ],
      "payable": false,
      "stateMutability": "nonpayable",
      "type": "function"
    },
    {
      "constant": true,
      "inputs": [
        {
          "name": "_hunter",
          "type": "address"
        }
      ],
      "name": "getParticipationStatus",
      "outputs": [
        {
          "name": "",
          "type": "bool"
        }
      ],
      "payable": false,
      "stateMutability": "view",
      "type": "function"
    },
    {
      "constant": true,
      "inputs": [],
      "name": "getAcceptedHunter",
      "outputs": [
        {
          "name": "",
          "type": "address[]"
        }
      ],
      "payable": false,
      "stateMutability": "view",
      "type": "function"
    }
  ],
  "bytecode": "0x60806040523480156200001157600080fd5b50604051620015653803806200156583398101806040528101908080519060200190929190805182019291906020018051820192919060200180519060200190929190505050836000806101000a81548173ffffffffffffffffffffffffffffffffffffffff021916908373ffffffffffffffffffffffffffffffffffffffff1602179055508260019080519060200190620000af92919062000154565b508160029080519060200190620000c892919062000154565b50806003819055506000600460006101000a81548160ff02191690836001811115620000f057fe5b02179055507fe7aa86b5f291bdcb40db26f6033a746a356aaabc62fcfc2be8c133b139bb39db600460009054906101000a900460ff16604051808260018111156200013757fe5b60ff16815260200191505060405180910390a15050505062000203565b828054600181600116156101000203166002900490600052602060002090601f016020900481019282601f106200019757805160ff1916838001178555620001c8565b82800160010185558215620001c8579182015b82811115620001c7578251825591602001919060010190620001aa565b5b509050620001d79190620001db565b5090565b6200020091905b80821115620001fc576000816000905550600101620001e2565b5090565b90565b61135280620002136000396000f3006080604052600436106100db576000357c0100000000000000000000000000000000000000000000000000000000900463ffffffff168063228cb733146100e0578063281e9dfd1461010b57806330c3efe5146101865780634a79d50c146101f35780637284e416146102835780637835007314610313578063787fe55c146103da5780639db069d814610517578063b2b9023c1461056e578063b5400ed9146105da578063bcc9074914610646578063c19d93fb146106a1578063c33fc1d4146106da578063cf75bf9d14610747578063e841c82f146107a2575b600080fd5b3480156100ec57600080fd5b506100f5610815565b6040518082815260200191505060405180910390f35b34801561011757600080fd5b5061016c600480360381019080803573ffffffffffffffffffffffffffffffffffffffff169060200190929190803573ffffffffffffffffffffffffffffffffffffffff16906020019092919050505061081b565b604051808215151515815260200191505060405180910390f35b34801561019257600080fd5b506101b160048036038101908080359060200190929190505050610945565b604051808273ffffffffffffffffffffffffffffffffffffffff1673ffffffffffffffffffffffffffffffffffffffff16815260200191505060405180910390f35b3480156101ff57600080fd5b50610208610983565b6040518080602001828103825283818151815260200191508051906020019080838360005b8381101561024857808201518184015260208101905061022d565b50505050905090810190601f1680156102755780820380516001836020036101000a031916815260200191505b509250505060405180910390f35b34801561028f57600080fd5b50610298610a21565b6040518080602001828103825283818151815260200191508051906020019080838360005b838110156102d85780820151818401526020810190506102bd565b50505050905090810190601f1680156103055780820380516001836020036101000a031916815260200191505b509250505060405180910390f35b34801561031f57600080fd5b50610354600480360381019080803573ffffffffffffffffffffffffffffffffffffffff169060200190929190505050610abf565b604051808060200183151515158152602001828103825284818151815260200191508051906020019080838360005b8381101561039e578082015181840152602081019050610383565b50505050905090810190601f1680156103cb5780820380516001836020036101000a031916815260200191505b50935050505060405180910390f35b3480156103e657600080fd5b506103ef610bfa565b604051808673ffffffffffffffffffffffffffffffffffffffff1673ffffffffffffffffffffffffffffffffffffffff1681526020018060200180602001858152602001848152602001838103835287818151815260200191508051906020019080838360005b83811015610471578082015181840152602081019050610456565b50505050905090810190601f16801561049e5780820380516001836020036101000a031916815260200191505b50838103825286818151815260200191508051906020019080838360005b838110156104d75780820151818401526020810190506104bc565b50505050905090810190601f1680156105045780820380516001836020036101000a031916815260200191505b5097505050505050505060405180910390f35b34801561052357600080fd5b5061052c610db1565b604051808273ffffffffffffffffffffffffffffffffffffffff1673ffffffffffffffffffffffffffffffffffffffff16815260200191505060405180910390f35b34801561057a57600080fd5b50610583610dd6565b6040518080602001828103825283818151815260200191508051906020019060200280838360005b838110156105c65780820151818401526020810190506105ab565b505050509050019250505060405180910390f35b3480156105e657600080fd5b506105ef610e64565b6040518080602001828103825283818151815260200191508051906020019060200280838360005b83811015610632578082015181840152602081019050610617565b505050509050019250505060405180910390f35b34801561065257600080fd5b50610687600480360381019080803573ffffffffffffffffffffffffffffffffffffffff169060200190929190505050610ef2565b604051808215151515815260200191505060405180910390f35b3480156106ad57600080fd5b506106b6610f48565b604051808260018111156106c657fe5b60ff16815260200191505060405180910390f35b3480156106e657600080fd5b5061070560048036038101908080359060200190929190505050610f5b565b604051808273ffffffffffffffffffffffffffffffffffffffff1673ffffffffffffffffffffffffffffffffffffffff16815260200191505060405180910390f35b34801561075357600080fd5b50610788600480360381019080803573ffffffffffffffffffffffffffffffffffffffff169060200190929190505050610f99565b604051808215151515815260200191505060405180910390f35b3480156107ae57600080fd5b506107fb600480360381019080803573ffffffffffffffffffffffffffffffffffffffff169060200190929190803590602001908201803590602001919091929391929390505050611079565b604051808215151515815260200191505060405180910390f35b60035481565b6000828073ffffffffffffffffffffffffffffffffffffffff166000809054906101000a900473ffffffffffffffffffffffffffffffffffffffff1673ffffffffffffffffffffffffffffffffffffffff1614151561087957600080fd5b6001600560008573ffffffffffffffffffffffffffffffffffffffff1673ffffffffffffffffffffffffffffffffffffffff16815260200190815260200160002060010160006101000a81548160ff02191690831515021790555060088390806001815401808255809150509060018203906000526020600020016000909192909190916101000a81548173ffffffffffffffffffffffffffffffffffffffff021916908373ffffffffffffffffffffffffffffffffffffffff16021790555050600191505092915050565b60088181548110151561095457fe5b906000526020600020016000915054906101000a900473ffffffffffffffffffffffffffffffffffffffff1681565b60018054600181600116156101000203166002900480601f016020809104026020016040519081016040528092919081815260200182805460018160011615610100020316600290048015610a195780601f106109ee57610100808354040283529160200191610a19565b820191906000526020600020905b8154815290600101906020018083116109fc57829003601f168201915b505050505081565b60028054600181600116156101000203166002900480601f016020809104026020016040519081016040528092919081815260200182805460018160011615610100020316600290048015610ab75780601f10610a8c57610100808354040283529160200191610ab7565b820191906000526020600020905b815481529060010190602001808311610a9a57829003601f168201915b505050505081565b60606000600560008473ffffffffffffffffffffffffffffffffffffffff1673ffffffffffffffffffffffffffffffffffffffff168152602001908152602001600020600001600560008573ffffffffffffffffffffffffffffffffffffffff1673ffffffffffffffffffffffffffffffffffffffff16815260200190815260200160002060010160009054906101000a900460ff16818054600181600116156101000203166002900480601f016020809104026020016040519081016040528092919081815260200182805460018160011615610100020316600290048015610bea5780601f10610bbf57610100808354040283529160200191610bea565b820191906000526020600020905b815481529060010190602001808311610bcd57829003601f168201915b5050505050915091509150915091565b60006060806000806000809054906101000a900473ffffffffffffffffffffffffffffffffffffffff166001600260035460006001811115610c3857fe5b600460009054906101000a900460ff166001811115610c5357fe5b14610c5f576001610c62565b60005b838054600181600116156101000203166002900480601f016020809104026020016040519081016040528092919081815260200182805460018160011615610100020316600290048015610cf75780601f10610ccc57610100808354040283529160200191610cf7565b820191906000526020600020905b815481529060010190602001808311610cda57829003601f168201915b50505050509350828054600181600116156101000203166002900480601f016020809104026020016040519081016040528092919081815260200182805460018160011615610100020316600290048015610d935780601f10610d6857610100808354040283529160200191610d93565b820191906000526020600020905b815481529060010190602001808311610d7657829003601f168201915b505050505092508060ff169050945094509450945094509091929394565b6000809054906101000a900473ffffffffffffffffffffffffffffffffffffffff1681565b60606008805480602002602001604051908101604052809291908181526020018280548015610e5a57602002820191906000526020600020905b8160009054906101000a900473ffffffffffffffffffffffffffffffffffffffff1673ffffffffffffffffffffffffffffffffffffffff1681526020019060010190808311610e10575b5050505050905090565b60606007805480602002602001604051908101604052809291908181526020018280548015610ee857602002820191906000526020600020905b8160009054906101000a900473ffffffffffffffffffffffffffffffffffffffff1673ffffffffffffffffffffffffffffffffffffffff1681526020019060010190808311610e9e575b5050505050905090565b6000600660008373ffffffffffffffffffffffffffffffffffffffff1673ffffffffffffffffffffffffffffffffffffffff16815260200190815260200160002060009054906101000a900460ff169050919050565b600460009054906101000a900460ff1681565b600781815481101515610f6a57fe5b906000526020600020016000915054906101000a900473ffffffffffffffffffffffffffffffffffffffff1681565b6000818073ffffffffffffffffffffffffffffffffffffffff166000809054906101000a900473ffffffffffffffffffffffffffffffffffffffff1673ffffffffffffffffffffffffffffffffffffffff16141515610ff757600080fd5b7fa8fa536e8394354d0d4edc909c2fadced5c7d8c3531335629cd49edfa1ce30a4600460009054906101000a900460ff166040518082600181111561103857fe5b60ff16815260200191505060405180910390a1600191506001600460006101000a81548160ff0219169083600181111561106e57fe5b021790555050919050565b60008060009054906101000a900473ffffffffffffffffffffffffffffffffffffffff1673ffffffffffffffffffffffffffffffffffffffff168473ffffffffffffffffffffffffffffffffffffffff16141515156110d757600080fd5b600060018111156110e457fe5b600460009054906101000a900460ff1660018111156110ff57fe5b14151561110b57600080fd5b8282600560008773ffffffffffffffffffffffffffffffffffffffff1673ffffffffffffffffffffffffffffffffffffffff168152602001908152602001600020600001919061115c929190611281565b506000600560008673ffffffffffffffffffffffffffffffffffffffff1673ffffffffffffffffffffffffffffffffffffffff16815260200190815260200160002060010160006101000a81548160ff02191690831515021790555060078490806001815401808255809150509060018203906000526020600020016000909192909190916101000a81548173ffffffffffffffffffffffffffffffffffffffff021916908373ffffffffffffffffffffffffffffffffffffffff160217905550506001600660008673ffffffffffffffffffffffffffffffffffffffff1673ffffffffffffffffffffffffffffffffffffffff16815260200190815260200160002060006101000a81548160ff021916908315150217905550600190509392505050565b828054600181600116156101000203166002900490600052602060002090601f016020900481019282601f106112c257803560ff19168380011785556112f0565b828001600101855582156112f0579182015b828111156112ef5782358255916020019190600101906112d4565b5b5090506112fd9190611301565b5090565b61132391905b8082111561131f576000816000905550600101611307565b5090565b905600a165627a7a72305820d70e95beab079a076dce9ce71e25376d5173c551cec65ae1da01d111d0e9089c0029",
  "source": "pragma solidity ^0.4.24;\n\n/** @title Bounty Contract. */\ncontract Bounty {\n    // State variables about Bounty conditions.\n    address public bountyOwner;\n    string public title;\n    string public description;\n    uint public reward;\n    State public state;\n\n    // mapping address to struct Work.\n    mapping (address => Work) works;\n    // Check Submitted state about each address.\n    mapping (address => bool) isSubmit;\n    \n    // hunter and accepted hunter address array to manage submitted work.\n    address[] public hunter;\n    address[] public acceptedHunter;\n    \n    // State about Bounty\n    enum State { Posted, Finished }\n\n    /** @dev Work struct consist of comment and acceptancy. \n      * People doing their work and comment simply.\n      * And Bounty Owner can decide acceptancy about it.\n      */\n    struct Work {\n        string comment;\n        bool isAccept;\n    }\n\n    // event about bounty state.\n    event Posted(State _state);\n    event Finished(State _state);\n\n    // event about work submit state and accept.\n    event Submitted(address _hunter, bool _isSubmit);\n    event Accepted(address _hunter, bool _isAccep);\n\n    // onlyOwner for restrict access to Bounty contract functions.\n    modifier onlyOwner (address _bountyOwner) {\n        require(bountyOwner == _bountyOwner);\n        _;\n    }\n\n    /** @dev Change state to Finished.  */\n    modifier finished {\n        _;\n        state = State.Finished;\n    }\n\n    /** @dev constructor.\n      * @param _bountyOwner bounty Owner.\n      * @param _title bounty title.\n      * @param _description bounty description.\n      * @param _reward reward for the work.\n      * When the contract created, emit event Posted.\n      */\n    constructor(address _bountyOwner, string _title, string _description, uint _reward) public {\n        bountyOwner = _bountyOwner;\n        title = _title;\n        description = _description;\n        reward = _reward;\n        state = State.Posted;\n        emit Posted(state);\n    }\n\n    /** @dev Change the Bounty state to Finished.\n      * @param _bountyOwner Only Bounty Owner can finish the Bounty.\n      * @return success.\n      */ \n    function finishBounty(address _bountyOwner) external onlyOwner(_bountyOwner) finished returns (bool success) {\n        /* emit event */\n        emit Finished(state);\n        return true;\n    }\n\n    /** @dev Fetch Bounty Informations.\n      * @return Bounty Informations.\n      */\n    function fetchBounty() external view returns (address, string, string, uint, uint) {\n        return (bountyOwner, title, description, reward, ((state == State.Posted) ? 0 : 1));\n    }\n\n    /** @dev Add Works.\n      * @param _hunter address who submit Work.\n      * @param _comment Work summary.\n      * @return success.\n      */\n    function addWork(address _hunter, string _comment) external returns (bool) {\n        require(_hunter != bountyOwner);\n        require(state == State.Posted);\n        works[_hunter].comment = _comment;\n        works[_hunter].isAccept = false;\n        hunter.push(_hunter);\n\n        isSubmit[_hunter] = true;\n        return true;\n    }\n\n    /** @dev Return All Hunters who submit Work at Bounty.\n      * @return hunter address array.\n      */\n    function getAllHunter() external view returns (address[]) {\n        return hunter;\n    }\n\n    /** @dev Get Work Informations about hunter.\n      * @param _hunter address to get Work struct.\n      * @return Work Informations.\n      */\n    function getWork(address _hunter) external view returns (string, bool) {\n        return (works[_hunter].comment, works[_hunter].isAccept);\n    }\n\n    /** @dev Bounty Owner can review Work.\n      * @param _bountyOwner For modifier onlyOwner.\n      * @param _hunterAddress Review this hunter's Work.\n      * @return success.\n      */\n    function reviewWork(address _bountyOwner, address _hunterAddress) external onlyOwner(_bountyOwner) returns (bool success) {\n        works[_hunterAddress].isAccept = true;\n        acceptedHunter.push(_hunterAddress);\n        success = true;\n    }\n\n    /** @dev Get Hunter's Participation status.\n      * @param _hunter For get hunter's participation status(using isSubmit mapping).\n      * @return success.\n      */\n    function getParticipationStatus(address _hunter) external view returns (bool) {\n        // return result of submit status. if hunter already submitted work, return true.\n        return isSubmit[_hunter];\n    }\n\n    /** @dev Return Accepted Hunter to pay.\n      * @return Accepted Work Hunters.\n      */\n    function getAcceptedHunter() external view returns (address[]) {\n        return acceptedHunter;\n    }\n\n}",
  "sourcePath": "C:\\Users\\shinh\\bounty-dapp\\contracts\\Bounty.sol",
  "compiler": {
    "name": "solc",
    "version": "0.4.24+commit.e67f0147.Emscripten.clang"
  },
  "schemaVersion": "2.0.1",
  "updatedAt": "2018-08-27T16:58:58.366Z"
}